{
  "contractName": "Evoting",
  "abi": [
    {
      "constant": true,
      "inputs": [
        {
          "name": "",
          "type": "uint256"
        }
      ],
      "name": "pemilih",
      "outputs": [
        {
          "name": "",
          "type": "address"
        }
      ],
      "payable": false,
      "stateMutability": "view",
      "type": "function"
    },
    {
      "constant": true,
      "inputs": [
        {
          "name": "",
          "type": "uint256"
        }
      ],
      "name": "rincihanKandidat",
      "outputs": [
        {
          "name": "nama",
          "type": "string"
        },
        {
          "name": "partai",
          "type": "string"
        },
        {
          "name": "visimisi",
          "type": "string"
        },
        {
          "name": "idKandidat",
          "type": "uint256"
        },
        {
          "name": "jumlahSuara",
          "type": "uint256"
        }
      ],
      "payable": false,
      "stateMutability": "view",
      "type": "function"
    },
    {
      "constant": true,
      "inputs": [
        {
          "name": "",
          "type": "address"
        }
      ],
      "name": "rincihanPemilih",
      "outputs": [
        {
          "name": "alamatPemilih",
          "type": "address"
        },
        {
          "name": "nama",
          "type": "string"
        },
        {
          "name": "id",
          "type": "string"
        },
        {
          "name": "telahMemilih",
          "type": "bool"
        },
        {
          "name": "verifikasi",
          "type": "bool"
        }
      ],
      "payable": false,
      "stateMutability": "view",
      "type": "function"
    },
    {
      "constant": true,
      "inputs": [],
      "name": "admin",
      "outputs": [
        {
          "name": "",
          "type": "address"
        }
      ],
      "payable": false,
      "stateMutability": "view",
      "type": "function"
    },
    {
      "inputs": [],
      "payable": false,
      "stateMutability": "nonpayable",
      "type": "constructor"
    },
    {
      "constant": true,
      "inputs": [],
      "name": "Admin",
      "outputs": [
        {
          "name": "",
          "type": "address"
        }
      ],
      "payable": false,
      "stateMutability": "view",
      "type": "function"
    },
    {
      "constant": false,
      "inputs": [
        {
          "name": "_nama",
          "type": "string"
        },
        {
          "name": "_partai",
          "type": "string"
        },
        {
          "name": "_visimisi",
          "type": "string"
        }
      ],
      "name": "penambahanKandidat",
      "outputs": [],
      "payable": false,
      "stateMutability": "nonpayable",
      "type": "function"
    },
    {
      "constant": true,
      "inputs": [],
      "name": "mendapatkanJumlahKandidat",
      "outputs": [
        {
          "name": "",
          "type": "uint256"
        }
      ],
      "payable": false,
      "stateMutability": "view",
      "type": "function"
    },
    {
      "constant": false,
      "inputs": [
        {
          "name": "_nama",
          "type": "string"
        },
        {
          "name": "_id",
          "type": "string"
        }
      ],
      "name": "permohonanPemilih",
      "outputs": [],
      "payable": false,
      "stateMutability": "nonpayable",
      "type": "function"
    },
    {
      "constant": true,
      "inputs": [],
      "name": "mendapatkanJumlahPemilih",
      "outputs": [
        {
          "name": "",
          "type": "uint256"
        }
      ],
      "payable": false,
      "stateMutability": "view",
      "type": "function"
    },
    {
      "constant": false,
      "inputs": [
        {
          "name": "_alamatPemilih",
          "type": "address"
        }
      ],
      "name": "memverifikasi",
      "outputs": [],
      "payable": false,
      "stateMutability": "nonpayable",
      "type": "function"
    },
    {
      "constant": false,
      "inputs": [
        {
          "name": "idKandidat",
          "type": "uint256"
        }
      ],
      "name": "memilih",
      "outputs": [],
      "payable": false,
      "stateMutability": "nonpayable",
      "type": "function"
    },
    {
      "constant": false,
      "inputs": [],
      "name": "mulaiElection",
      "outputs": [],
      "payable": false,
      "stateMutability": "nonpayable",
      "type": "function"
    },
    {
      "constant": false,
      "inputs": [],
      "name": "selesaiElection",
      "outputs": [],
      "payable": false,
      "stateMutability": "nonpayable",
      "type": "function"
    },
    {
      "constant": true,
      "inputs": [],
      "name": "getStart",
      "outputs": [
        {
          "name": "",
          "type": "bool"
        }
      ],
      "payable": false,
      "stateMutability": "view",
      "type": "function"
    },
    {
      "constant": true,
      "inputs": [],
      "name": "getEnd",
      "outputs": [
        {
          "name": "",
          "type": "bool"
        }
      ],
      "payable": false,
      "stateMutability": "view",
      "type": "function"
    }
  ],
  "bytecode": "0x6060604052341561000f57600080fd5b336000806101000a81548173ffffffffffffffffffffffffffffffffffffffff021916908373ffffffffffffffffffffffffffffffffffffffff160217905550600060018190555060006002819055506000600360006101000a81548160ff0219169083151502179055506000600360016101000a81548160ff021916908315150217905550611192806100a46000396000f300606060405236156100d9576000357c0100000000000000000000000000000000000000000000000000000000900463ffffffff1680633e586ef2146100de57806347000a8814610101578063538327e41461016457806393dac739146101795780639f05a36d1461025c578063b9343ad614610289578063c5292c67146102b2578063ca5db857146102df578063ce673080146102f4578063d1184cd2146104cd578063d57e832e1461056d578063d6d21835146105a6578063d71edb8114610747578063f851a44014610770578063ff1b636d146107c5575b600080fd5b34156100e957600080fd5b6100ff600480803590602001909190505061081a565b005b341561010c57600080fd5b61012260048080359060200190919050506109a5565b604051808273ffffffffffffffffffffffffffffffffffffffff1673ffffffffffffffffffffffffffffffffffffffff16815260200191505060405180910390f35b341561016f57600080fd5b6101776109e4565b005b341561018457600080fd5b61025a600480803590602001908201803590602001908080601f0160208091040260200160405190810160405280939291908181526020018383808284378201915050505050509190803590602001908201803590602001908080601f0160208091040260200160405190810160405280939291908181526020018383808284378201915050505050509190803590602001908201803590602001908080601f01602080910402602001604051908101604052809392919081815260200183838082843782019150505050505091905050610a77565b005b341561026757600080fd5b61026f610ba1565b604051808215151515815260200191505060405180910390f35b341561029457600080fd5b61029c610bb8565b6040518082815260200191505060405180910390f35b34156102bd57600080fd5b6102c5610bc2565b604051808215151515815260200191505060405180910390f35b34156102ea57600080fd5b6102f2610bd9565b005b34156102ff57600080fd5b6103156004808035906020019091905050610c6c565b604051808060200180602001806020018681526020018581526020018481038452898181546001816001161561010002031660029004815260200191508054600181600116156101000203166002900480156103b25780601f10610387576101008083540402835291602001916103b2565b820191906000526020600020905b81548152906001019060200180831161039557829003601f168201915b50508481038352888181546001816001161561010002031660029004815260200191508054600181600116156101000203166002900480156104355780601f1061040a57610100808354040283529160200191610435565b820191906000526020600020905b81548152906001019060200180831161041857829003601f168201915b50508481038252878181546001816001161561010002031660029004815260200191508054600181600116156101000203166002900480156104b85780601f1061048d576101008083540402835291602001916104b8565b820191906000526020600020905b81548152906001019060200180831161049b57829003601f168201915b50509850505050505050505060405180910390f35b34156104d857600080fd5b61056b600480803590602001908201803590602001908080601f0160208091040260200160405190810160405280939291908181526020018383808284378201915050505050509190803590602001908201803590602001908080601f01602080910402602001604051908101604052809392919081815260200183838082843782019150505050505091905050610c9f565b005b341561057857600080fd5b6105a4600480803573ffffffffffffffffffffffffffffffffffffffff16906020019091905050610e6a565b005b34156105b157600080fd5b6105dd600480803573ffffffffffffffffffffffffffffffffffffffff16906020019091905050610f23565b604051808673ffffffffffffffffffffffffffffffffffffffff1673ffffffffffffffffffffffffffffffffffffffff168152602001806020018060200185151515158152602001841515151581526020018381038352878181546001816001161561010002031660029004815260200191508054600181600116156101000203166002900480156106b05780601f10610685576101008083540402835291602001916106b0565b820191906000526020600020905b81548152906001019060200180831161069357829003601f168201915b50508381038252868181546001816001161561010002031660029004815260200191508054600181600116156101000203166002900480156107335780601f1061070857610100808354040283529160200191610733565b820191906000526020600020905b81548152906001019060200180831161071657829003601f168201915b505097505050505050505060405180910390f35b341561075257600080fd5b61075a610f91565b6040518082815260200191505060405180910390f35b341561077b57600080fd5b610783610f9b565b604051808273ffffffffffffffffffffffffffffffffffffffff1673ffffffffffffffffffffffffffffffffffffffff16815260200191505060405180910390f35b34156107d057600080fd5b6107d8610fc0565b604051808273ffffffffffffffffffffffffffffffffffffffff1673ffffffffffffffffffffffffffffffffffffffff16815260200191505060405180910390f35b60001515600660003373ffffffffffffffffffffffffffffffffffffffff1673ffffffffffffffffffffffffffffffffffffffff16815260200190815260200160002060030160009054906101000a900460ff16151514151561087c57600080fd5b60011515600660003373ffffffffffffffffffffffffffffffffffffffff1673ffffffffffffffffffffffffffffffffffffffff16815260200190815260200160002060030160019054906101000a900460ff1615151415156108de57600080fd5b60011515600360009054906101000a900460ff16151514151561090057600080fd5b60001515600360019054906101000a900460ff16151514151561092257600080fd5b600160046000838152602001908152602001600020600401600082825401925050819055506001600660003373ffffffffffffffffffffffffffffffffffffffff1673ffffffffffffffffffffffffffffffffffffffff16815260200190815260200160002060030160006101000a81548160ff02191690831515021790555050565b6005818154811015156109b457fe5b90600052602060002090016000915054906101000a900473ffffffffffffffffffffffffffffffffffffffff1681565b6000809054906101000a900473ffffffffffffffffffffffffffffffffffffffff1673ffffffffffffffffffffffffffffffffffffffff163373ffffffffffffffffffffffffffffffffffffffff16141515610a3f57600080fd5b6001600360006101000a81548160ff0219169083151502179055506000600360016101000a81548160ff021916908315150217905550565b610a7f610fe9565b6000809054906101000a900473ffffffffffffffffffffffffffffffffffffffff1673ffffffffffffffffffffffffffffffffffffffff163373ffffffffffffffffffffffffffffffffffffffff16141515610ada57600080fd5b60a060405190810160405280858152602001848152602001838152602001600154815260200160008152509050806004600060015481526020019081526020016000206000820151816000019080519060200190610b3992919061102b565b506020820151816001019080519060200190610b5692919061102b565b506040820151816002019080519060200190610b7392919061102b565b5060608201518160030155608082015181600401559050506001806000828254019250508190555050505050565b6000600360019054906101000a900460ff16905090565b6000600154905090565b6000600360009054906101000a900460ff16905090565b6000809054906101000a900473ffffffffffffffffffffffffffffffffffffffff1673ffffffffffffffffffffffffffffffffffffffff163373ffffffffffffffffffffffffffffffffffffffff16141515610c3457600080fd5b6001600360016101000a81548160ff0219169083151502179055506000600360006101000a81548160ff021916908315150217905550565b60046020528060005260406000206000915090508060000190806001019080600201908060030154908060040154905085565b610ca76110ab565b60a0604051908101604052803373ffffffffffffffffffffffffffffffffffffffff16815260200184815260200183815260200160001515815260200160001515815250905080600660003373ffffffffffffffffffffffffffffffffffffffff1673ffffffffffffffffffffffffffffffffffffffff16815260200190815260200160002060008201518160000160006101000a81548173ffffffffffffffffffffffffffffffffffffffff021916908373ffffffffffffffffffffffffffffffffffffffff1602179055506020820151816001019080519060200190610d9092919061102b565b506040820151816002019080519060200190610dad92919061102b565b5060608201518160030160006101000a81548160ff02191690831515021790555060808201518160030160016101000a81548160ff02191690831515021790555090505060058054806001018281610e059190611101565b9160005260206000209001600033909190916101000a81548173ffffffffffffffffffffffffffffffffffffffff021916908373ffffffffffffffffffffffffffffffffffffffff160217905550506001600260008282540192505081905550505050565b6000809054906101000a900473ffffffffffffffffffffffffffffffffffffffff1673ffffffffffffffffffffffffffffffffffffffff163373ffffffffffffffffffffffffffffffffffffffff16141515610ec557600080fd5b6001600660008373ffffffffffffffffffffffffffffffffffffffff1673ffffffffffffffffffffffffffffffffffffffff16815260200190815260200160002060030160016101000a81548160ff02191690831515021790555050565b60066020528060005260406000206000915090508060000160009054906101000a900473ffffffffffffffffffffffffffffffffffffffff1690806001019080600201908060030160009054906101000a900460ff16908060030160019054906101000a900460ff16905085565b6000600254905090565b6000809054906101000a900473ffffffffffffffffffffffffffffffffffffffff1681565b60008060009054906101000a900473ffffffffffffffffffffffffffffffffffffffff16905090565b60a060405190810160405280610ffd61112d565b815260200161100a61112d565b815260200161101761112d565b815260200160008152602001600081525090565b828054600181600116156101000203166002900490600052602060002090601f016020900481019282601f1061106c57805160ff191683800117855561109a565b8280016001018555821561109a579182015b8281111561109957825182559160200191906001019061107e565b5b5090506110a79190611141565b5090565b60a060405190810160405280600073ffffffffffffffffffffffffffffffffffffffff1681526020016110dc61112d565b81526020016110e961112d565b81526020016000151581526020016000151581525090565b815481835581811511611128578183600052602060002091820191016111279190611141565b5b505050565b602060405190810160405280600081525090565b61116391905b8082111561115f576000816000905550600101611147565b5090565b905600a165627a7a7230582044c797f22d116e91c9308bbdd72adf7432c7b5f73648d484d61376065c7c14ac0029",
  "source": "// SPDX-License-Identifier: GPL-3.0\r\npragma solidity ^0.4.17;\r\n// pragma experimental ABIEncoderv2;\r\n\r\ncontract Evoting {\r\n    address public admin;\r\n    uint jumlahKandidat;\r\n    uint jumlahPemilih;\r\n    bool mulai;\r\n    bool selesai;\r\n\r\n    function Evoting() public {\r\n        admin = msg.sender;\r\n        jumlahKandidat = 0;\r\n        jumlahPemilih = 0;\r\n        mulai = false;\r\n        selesai = false;\r\n    }\r\n\r\n    // Hanya admin yang bisa mengakses\r\n    function Admin() public view returns(address) {\r\n        return admin;\r\n    }\r\n\r\n    modifier onlyAdmin() {\r\n        require(msg.sender == admin);\r\n        _;\r\n    }\r\n\r\n    // Set up kandidat\r\n    struct Kandidat{\r\n        string nama;\r\n        string partai;\r\n        string visimisi;\r\n        uint idKandidat;\r\n        uint jumlahSuara;\r\n    }\r\n\r\n    mapping(uint => Kandidat) public rincihanKandidat;\r\n\r\n    // Hanya admin yang melakukan\r\n    function penambahanKandidat(string _nama, string _partai, string _visimisi) public onlyAdmin() {\r\n        Kandidat memory newKandidat = Kandidat({\r\n            nama : _nama,\r\n            partai : _partai,\r\n            visimisi : _visimisi,\r\n            idKandidat : jumlahKandidat,\r\n            jumlahSuara : 0\r\n        });\r\n        rincihanKandidat[jumlahKandidat] = newKandidat;\r\n        jumlahKandidat += 1;\r\n    }\r\n\r\n    function mendapatkanJumlahKandidat() public view returns (uint) {\r\n        return jumlahKandidat;\r\n    }\r\n\r\n    // Set up pemilih\r\n    struct Pemilih {\r\n        address alamatPemilih;\r\n        string nama;\r\n        string id;\r\n        bool telahMemilih;\r\n        bool verifikasi;\r\n    }\r\n\r\n    address[] public pemilih;\r\n    mapping(address => Pemilih) public rincihanPemilih;\r\n\r\n    function permohonanPemilih(string _nama, string _id) public {\r\n        Pemilih memory newPemilih = Pemilih({\r\n            alamatPemilih : msg.sender,\r\n            nama : _nama,\r\n            id : _id,\r\n            telahMemilih : false,\r\n            verifikasi : false\r\n        });\r\n        rincihanPemilih[msg.sender] = newPemilih;\r\n        pemilih.push(msg.sender);\r\n        jumlahPemilih += 1;\r\n    }\r\n\r\n    function mendapatkanJumlahPemilih() public view returns (uint) {\r\n        return jumlahPemilih;\r\n    }\r\n\r\n    function memverifikasi(address _alamatPemilih) public onlyAdmin() {\r\n        rincihanPemilih[_alamatPemilih].verifikasi = true;\r\n    }\r\n\r\n    // Proses pemilihan suara\r\n    function memilih(uint idKandidat) public {\r\n        require(rincihanPemilih[msg.sender].telahMemilih == false);\r\n        require(rincihanPemilih[msg.sender].verifikasi == true);\r\n        require(mulai == true);\r\n        require(selesai == false);\r\n\r\n        rincihanKandidat[idKandidat].jumlahSuara += 1;\r\n        rincihanPemilih[msg.sender].telahMemilih = true;\r\n    }\r\n\r\n    function mulaiElection() public onlyAdmin {\r\n        mulai = true;\r\n        selesai = false;\r\n    }\r\n\r\n    function selesaiElection() public onlyAdmin {\r\n        selesai = true;\r\n        mulai = false;\r\n    }\r\n\r\n    function getStart() public view returns (bool) {\r\n        return mulai;\r\n    }\r\n\r\n    function getEnd() public view returns (bool) {\r\n        return selesai;\r\n    }\r\n}",
  "sourcePath": "C:\\Users\\Angga Danar\\Documents\\PKL\\Evoting\\contracts\\Evoting.sol",
  "compiler": {
    "name": "solc",
    "version": "0.4.17+commit.bdeb9e52.Emscripten.clang"
  },
  "schemaVersion": "3.4.3",
  "updatedAt": "2021-11-10T14:50:24.825Z",
  "networkType": "ethereum",
  "devdoc": {
    "methods": {}
  },
  "userdoc": {
    "methods": {}
  }
}