{
  "contractName": "SimpleStorage",
  "abi": [
    {
      "constant": false,
      "inputs": [
        {
          "name": "x",
          "type": "uint256"
        }
      ],
      "name": "set",
      "outputs": [],
      "payable": false,
      "stateMutability": "nonpayable",
      "type": "function"
    },
    {
      "constant": true,
      "inputs": [],
      "name": "get",
      "outputs": [
        {
          "name": "",
          "type": "uint256"
        }
      ],
      "payable": false,
      "stateMutability": "view",
      "type": "function"
    }
  ],
  "bytecode": "0x6060604052341561000f57600080fd5b60cb8061001d6000396000f30060606040526000357c0100000000000000000000000000000000000000000000000000000000900463ffffffff16806360fe47b11460465780636d4ce63c14606657600080fd5b3415605057600080fd5b60646004808035906020019091905050608c565b005b3415607057600080fd5b60766096565b6040518082815260200191505060405180910390f35b8060008190555050565b600080549050905600a165627a7a72305820b997ba097aa9d249ae09fbf0efefd629d691672b2499d3cf700cd9f837af909c0029",
  "source": "// SPDX-License-Identifier: MIT\npragma solidity ^0.4.17;\n\ncontract SimpleStorage {\n  uint storedData;\n\n  function set(uint x) public {\n    storedData = x;\n  }\n\n  function get() public view returns (uint) {\n    return storedData;\n  }\n}\n",
  "sourcePath": "C:\\Users\\Angga Danar\\Documents\\PKL\\Evoting\\contracts\\SimpleStorage.sol",
  "compiler": {
    "name": "solc",
    "version": "0.4.17+commit.bdeb9e52.Emscripten.clang"
  },
  "schemaVersion": "3.4.3",
  "updatedAt": "2021-11-10T14:50:23.632Z",
  "networkType": "ethereum",
  "devdoc": {
    "methods": {}
  },
  "userdoc": {
    "methods": {}
  }
}